{
	"contracts/Lottery.sol": {
		"Lottery": {
			"abi": [
				{
					"inputs": [],
					"stateMutability": "nonpayable",
					"type": "constructor"
				},
				{
					"inputs": [],
					"name": "getBalance",
					"outputs": [
						{
							"internalType": "uint256",
							"name": "",
							"type": "uint256"
						}
					],
					"stateMutability": "view",
					"type": "function"
				},
				{
					"inputs": [],
					"name": "manager",
					"outputs": [
						{
							"internalType": "address",
							"name": "",
							"type": "address"
						}
					],
					"stateMutability": "view",
					"type": "function"
				},
				{
					"inputs": [],
					"name": "pickWinner",
					"outputs": [],
					"stateMutability": "nonpayable",
					"type": "function"
				},
				{
					"inputs": [
						{
							"internalType": "uint256",
							"name": "",
							"type": "uint256"
						}
					],
					"name": "players",
					"outputs": [
						{
							"internalType": "address payable",
							"name": "",
							"type": "address"
						}
					],
					"stateMutability": "view",
					"type": "function"
				},
				{
					"inputs": [],
					"name": "random",
					"outputs": [
						{
							"internalType": "uint256",
							"name": "",
							"type": "uint256"
						}
					],
					"stateMutability": "view",
					"type": "function"
				},
				{
					"stateMutability": "payable",
					"type": "receive"
				}
			],
			"devdoc": {
				"kind": "dev",
				"methods": {},
				"version": 1
			},
			"evm": {
				"assembly": "    /* \"contracts/Lottery.sol\":67:1036  contract Lottery{... */\n  mstore(0x40, 0x80)\n    /* \"contracts/Lottery.sol\":166:219  constructor(){... */\n  callvalue\n  dup1\n  iszero\n  tag_1\n  jumpi\n  0x00\n  dup1\n  revert\ntag_1:\n  pop\n    /* \"contracts/Lottery.sol\":200:210  msg.sender */\n  caller\n    /* \"contracts/Lottery.sol\":190:197  manager */\n  0x01\n  0x00\n    /* \"contracts/Lottery.sol\":190:210  manager = msg.sender */\n  0x0100\n  exp\n  dup2\n  sload\n  dup2\n  0xffffffffffffffffffffffffffffffffffffffff\n  mul\n  not\n  and\n  swap1\n  dup4\n  0xffffffffffffffffffffffffffffffffffffffff\n  and\n  mul\n  or\n  swap1\n  sstore\n  pop\n    /* \"contracts/Lottery.sol\":67:1036  contract Lottery{... */\n  dataSize(sub_0)\n  dup1\n  dataOffset(sub_0)\n  0x00\n  codecopy\n  0x00\n  return\nstop\n\nsub_0: assembly {\n        /* \"contracts/Lottery.sol\":67:1036  contract Lottery{... */\n      mstore(0x40, 0x80)\n      jumpi(tag_1, lt(calldatasize, 0x04))\n      shr(0xe0, calldataload(0x00))\n      dup1\n      0x12065fe0\n      eq\n      tag_3\n      jumpi\n      dup1\n      0x481c6a75\n      eq\n      tag_4\n      jumpi\n      dup1\n      0x5d495aea\n      eq\n      tag_5\n      jumpi\n      dup1\n      0x5ec01e4d\n      eq\n      tag_6\n      jumpi\n      dup1\n      0xf71d96cb\n      eq\n      tag_7\n      jumpi\n      jump(tag_2)\n    tag_1:\n      jumpi(tag_2, calldatasize)\n        /* \"contracts/Lottery.sol\":286:295  0.1 ether */\n      0x016345785d8a0000\n        /* \"contracts/Lottery.sol\":273:282  msg.value */\n      callvalue\n        /* \"contracts/Lottery.sol\":273:295  msg.value == 0.1 ether */\n      eq\n        /* \"contracts/Lottery.sol\":265:296  require(msg.value == 0.1 ether) */\n      tag_10\n      jumpi\n      0x00\n      dup1\n      revert\n    tag_10:\n        /* \"contracts/Lottery.sol\":307:314  players */\n      0x00\n        /* \"contracts/Lottery.sol\":328:338  msg.sender */\n      caller\n        /* \"contracts/Lottery.sol\":307:340  players.push(payable(msg.sender)) */\n      swap1\n      dup1\n      0x01\n      dup2\n      sload\n      add\n      dup1\n      dup3\n      sstore\n      dup1\n      swap2\n      pop\n      pop\n      0x01\n      swap1\n      sub\n      swap1\n      0x00\n      mstore\n      keccak256(0x00, 0x20)\n      add\n      0x00\n      swap1\n      swap2\n      swap1\n      swap2\n      swap1\n      swap2\n      0x0100\n      exp\n      dup2\n      sload\n      dup2\n      0xffffffffffffffffffffffffffffffffffffffff\n      mul\n      not\n      and\n      swap1\n      dup4\n      0xffffffffffffffffffffffffffffffffffffffff\n      and\n      mul\n      or\n      swap1\n      sstore\n      stop\n        /* \"contracts/Lottery.sol\":67:1036  contract Lottery{... */\n    tag_2:\n      0x00\n      dup1\n      revert\n        /* \"contracts/Lottery.sol\":358:494  function getBalance() public view returns(uint){... */\n    tag_3:\n      callvalue\n      dup1\n      iszero\n      tag_12\n      jumpi\n      0x00\n      dup1\n      revert\n    tag_12:\n      pop\n      tag_13\n      tag_14\n      jump\t// in\n    tag_13:\n      mload(0x40)\n      tag_15\n      swap2\n      swap1\n      tag_16\n      jump\t// in\n    tag_15:\n      mload(0x40)\n      dup1\n      swap2\n      sub\n      swap1\n      return\n        /* \"contracts/Lottery.sol\":132:154  address public manager */\n    tag_4:\n      callvalue\n      dup1\n      iszero\n      tag_17\n      jumpi\n      0x00\n      dup1\n      revert\n    tag_17:\n      pop\n      tag_18\n      tag_19\n      jump\t// in\n    tag_18:\n      mload(0x40)\n      tag_20\n      swap2\n      swap1\n      tag_21\n      jump\t// in\n    tag_20:\n      mload(0x40)\n      dup1\n      swap2\n      sub\n      swap1\n      return\n        /* \"contracts/Lottery.sol\":666:1033  function pickWinner() public {... */\n    tag_5:\n      callvalue\n      dup1\n      iszero\n      tag_22\n      jumpi\n      0x00\n      dup1\n      revert\n    tag_22:\n      pop\n      tag_23\n      tag_24\n      jump\t// in\n    tag_23:\n      stop\n        /* \"contracts/Lottery.sol\":503:657  function random() public view returns(uint){... */\n    tag_6:\n      callvalue\n      dup1\n      iszero\n      tag_25\n      jumpi\n      0x00\n      dup1\n      revert\n    tag_25:\n      pop\n      tag_26\n      tag_27\n      jump\t// in\n    tag_26:\n      mload(0x40)\n      tag_28\n      swap2\n      swap1\n      tag_16\n      jump\t// in\n    tag_28:\n      mload(0x40)\n      dup1\n      swap2\n      sub\n      swap1\n      return\n        /* \"contracts/Lottery.sol\":91:123  address payable[] public players */\n    tag_7:\n      callvalue\n      dup1\n      iszero\n      tag_29\n      jumpi\n      0x00\n      dup1\n      revert\n    tag_29:\n      pop\n      tag_30\n      0x04\n      dup1\n      calldatasize\n      sub\n      dup2\n      add\n      swap1\n      tag_31\n      swap2\n      swap1\n      tag_32\n      jump\t// in\n    tag_31:\n      tag_33\n      jump\t// in\n    tag_30:\n      mload(0x40)\n      tag_34\n      swap2\n      swap1\n      tag_35\n      jump\t// in\n    tag_34:\n      mload(0x40)\n      dup1\n      swap2\n      sub\n      swap1\n      return\n        /* \"contracts/Lottery.sol\":358:494  function getBalance() public view returns(uint){... */\n    tag_14:\n        /* \"contracts/Lottery.sol\":400:404  uint */\n      0x00\n        /* \"contracts/Lottery.sol\":438:445  manager */\n      0x01\n      0x00\n      swap1\n      sload\n      swap1\n      0x0100\n      exp\n      swap1\n      div\n      0xffffffffffffffffffffffffffffffffffffffff\n      and\n        /* \"contracts/Lottery.sol\":424:445  msg.sender == manager */\n      0xffffffffffffffffffffffffffffffffffffffff\n      and\n        /* \"contracts/Lottery.sol\":424:434  msg.sender */\n      caller\n        /* \"contracts/Lottery.sol\":424:445  msg.sender == manager */\n      0xffffffffffffffffffffffffffffffffffffffff\n      and\n      eq\n        /* \"contracts/Lottery.sol\":416:446  require(msg.sender == manager) */\n      tag_37\n      jumpi\n      0x00\n      dup1\n      revert\n    tag_37:\n        /* \"contracts/Lottery.sol\":464:485  address(this).balance */\n      selfbalance\n        /* \"contracts/Lottery.sol\":457:485  return address(this).balance */\n      swap1\n      pop\n        /* \"contracts/Lottery.sol\":358:494  function getBalance() public view returns(uint){... */\n      swap1\n      jump\t// out\n        /* \"contracts/Lottery.sol\":132:154  address public manager */\n    tag_19:\n      0x01\n      0x00\n      swap1\n      sload\n      swap1\n      0x0100\n      exp\n      swap1\n      div\n      0xffffffffffffffffffffffffffffffffffffffff\n      and\n      dup2\n      jump\t// out\n        /* \"contracts/Lottery.sol\":666:1033  function pickWinner() public {... */\n    tag_24:\n        /* \"contracts/Lottery.sol\":728:735  manager */\n      0x01\n      0x00\n      swap1\n      sload\n      swap1\n      0x0100\n      exp\n      swap1\n      div\n      0xffffffffffffffffffffffffffffffffffffffff\n      and\n        /* \"contracts/Lottery.sol\":714:735  msg.sender == manager */\n      0xffffffffffffffffffffffffffffffffffffffff\n      and\n        /* \"contracts/Lottery.sol\":714:724  msg.sender */\n      caller\n        /* \"contracts/Lottery.sol\":714:735  msg.sender == manager */\n      0xffffffffffffffffffffffffffffffffffffffff\n      and\n      eq\n        /* \"contracts/Lottery.sol\":706:736  require(msg.sender == manager) */\n      tag_39\n      jumpi\n      0x00\n      dup1\n      revert\n    tag_39:\n        /* \"contracts/Lottery.sol\":773:774  3 */\n      0x03\n        /* \"contracts/Lottery.sol\":755:762  players */\n      0x00\n        /* \"contracts/Lottery.sol\":755:769  players.length */\n      dup1\n      sload\n      swap1\n      pop\n        /* \"contracts/Lottery.sol\":755:774  players.length >= 3 */\n      lt\n      iszero\n        /* \"contracts/Lottery.sol\":747:775  require(players.length >= 3) */\n      tag_40\n      jumpi\n      0x00\n      dup1\n      revert\n    tag_40:\n        /* \"contracts/Lottery.sol\":788:794  uint r */\n      0x00\n        /* \"contracts/Lottery.sol\":797:805  random() */\n      tag_41\n        /* \"contracts/Lottery.sol\":797:803  random */\n      tag_27\n        /* \"contracts/Lottery.sol\":797:805  random() */\n      jump\t// in\n    tag_41:\n        /* \"contracts/Lottery.sol\":788:805  uint r = random() */\n      swap1\n      pop\n        /* \"contracts/Lottery.sol\":816:838  address payable winner */\n      0x00\n        /* \"contracts/Lottery.sol\":851:863  uint r_index */\n      dup1\n        /* \"contracts/Lottery.sol\":870:877  players */\n      0x00\n        /* \"contracts/Lottery.sol\":870:884  players.length */\n      dup1\n      sload\n      swap1\n      pop\n        /* \"contracts/Lottery.sol\":866:867  r */\n      dup4\n        /* \"contracts/Lottery.sol\":866:884  r % players.length */\n      tag_42\n      swap2\n      swap1\n      tag_43\n      jump\t// in\n    tag_42:\n        /* \"contracts/Lottery.sol\":851:884  uint r_index = r % players.length */\n      swap1\n      pop\n        /* \"contracts/Lottery.sol\":904:911  players */\n      0x00\n        /* \"contracts/Lottery.sol\":912:919  r_index */\n      dup2\n        /* \"contracts/Lottery.sol\":904:920  players[r_index] */\n      dup2\n      sload\n      dup2\n      lt\n      tag_44\n      jumpi\n      tag_45\n      tag_46\n      jump\t// in\n    tag_45:\n    tag_44:\n      swap1\n      0x00\n      mstore\n      keccak256(0x00, 0x20)\n      add\n      0x00\n      swap1\n      sload\n      swap1\n      0x0100\n      exp\n      swap1\n      div\n      0xffffffffffffffffffffffffffffffffffffffff\n      and\n        /* \"contracts/Lottery.sol\":895:920  winner = players[r_index] */\n      swap2\n      pop\n        /* \"contracts/Lottery.sol\":931:937  winner */\n      dup2\n        /* \"contracts/Lottery.sol\":931:946  winner.transfer */\n      0xffffffffffffffffffffffffffffffffffffffff\n      and\n        /* \"contracts/Lottery.sol\":931:960  winner.transfer(getBalance()) */\n      0x08fc\n        /* \"contracts/Lottery.sol\":947:959  getBalance() */\n      tag_48\n        /* \"contracts/Lottery.sol\":947:957  getBalance */\n      tag_14\n        /* \"contracts/Lottery.sol\":947:959  getBalance() */\n      jump\t// in\n    tag_48:\n        /* \"contracts/Lottery.sol\":931:960  winner.transfer(getBalance()) */\n      swap1\n      dup2\n      iszero\n      mul\n      swap1\n      mload(0x40)\n      0x00\n      mload(0x40)\n      dup1\n      dup4\n      sub\n      dup2\n      dup6\n      dup9\n      dup9\n      call\n      swap4\n      pop\n      pop\n      pop\n      pop\n      iszero\n      dup1\n      iszero\n      tag_50\n      jumpi\n      returndatasize\n      0x00\n      dup1\n      returndatacopy\n      revert(0x00, returndatasize)\n    tag_50:\n      pop\n        /* \"contracts/Lottery.sol\":1003:1004  0 */\n      0x00\n        /* \"contracts/Lottery.sol\":981:1005  new address payable[](0) */\n      0xffffffffffffffff\n      dup2\n      gt\n      iszero\n      tag_51\n      jumpi\n      tag_52\n      tag_53\n      jump\t// in\n    tag_52:\n    tag_51:\n      mload(0x40)\n      swap1\n      dup1\n      dup3\n      mstore\n      dup1\n      0x20\n      mul\n      0x20\n      add\n      dup3\n      add\n      0x40\n      mstore\n      dup1\n      iszero\n      tag_54\n      jumpi\n      dup2\n      0x20\n      add\n      0x20\n      dup3\n      mul\n      dup1\n      calldatasize\n      dup4\n      calldatacopy\n      dup1\n      dup3\n      add\n      swap2\n      pop\n      pop\n      swap1\n      pop\n    tag_54:\n      pop\n        /* \"contracts/Lottery.sol\":971:978  players */\n      0x00\n        /* \"contracts/Lottery.sol\":971:1005  players = new address payable[](0) */\n      swap1\n      dup1\n      mload\n      swap1\n      0x20\n      add\n      swap1\n      tag_55\n      swap3\n      swap2\n      swap1\n      tag_56\n      jump\t// in\n    tag_55:\n      pop\n        /* \"contracts/Lottery.sol\":695:1033  {... */\n      pop\n      pop\n      pop\n        /* \"contracts/Lottery.sol\":666:1033  function pickWinner() public {... */\n      jump\t// out\n        /* \"contracts/Lottery.sol\":503:657  function random() public view returns(uint){... */\n    tag_27:\n        /* \"contracts/Lottery.sol\":541:545  uint */\n      0x00\n        /* \"contracts/Lottery.sol\":596:612  block.prevrandao */\n      prevrandao\n        /* \"contracts/Lottery.sol\":614:629  block.timestamp */\n      timestamp\n        /* \"contracts/Lottery.sol\":631:638  players */\n      0x00\n        /* \"contracts/Lottery.sol\":631:645  players.length */\n      dup1\n      sload\n      swap1\n      pop\n        /* \"contracts/Lottery.sol\":579:646  abi.encodePacked(block.prevrandao, block.timestamp, players.length) */\n      add(0x20, mload(0x40))\n      tag_58\n      swap4\n      swap3\n      swap2\n      swap1\n      tag_59\n      jump\t// in\n    tag_58:\n      mload(0x40)\n      0x20\n      dup2\n      dup4\n      sub\n      sub\n      dup2\n      mstore\n      swap1\n      0x40\n      mstore\n        /* \"contracts/Lottery.sol\":569:647  keccak256(abi.encodePacked(block.prevrandao, block.timestamp, players.length)) */\n      dup1\n      mload\n      swap1\n      0x20\n      add\n      keccak256\n        /* \"contracts/Lottery.sol\":564:648  uint(keccak256(abi.encodePacked(block.prevrandao, block.timestamp, players.length))) */\n      0x00\n      shr\n        /* \"contracts/Lottery.sol\":557:648  return uint(keccak256(abi.encodePacked(block.prevrandao, block.timestamp, players.length))) */\n      swap1\n      pop\n        /* \"contracts/Lottery.sol\":503:657  function random() public view returns(uint){... */\n      swap1\n      jump\t// out\n        /* \"contracts/Lottery.sol\":91:123  address payable[] public players */\n    tag_33:\n      0x00\n      dup2\n      dup2\n      sload\n      dup2\n      lt\n      tag_60\n      jumpi\n      0x00\n      dup1\n      revert\n    tag_60:\n      swap1\n      0x00\n      mstore\n      keccak256(0x00, 0x20)\n      add\n      0x00\n      swap2\n      pop\n      sload\n      swap1\n      0x0100\n      exp\n      swap1\n      div\n      0xffffffffffffffffffffffffffffffffffffffff\n      and\n      dup2\n      jump\t// out\n    tag_56:\n      dup3\n      dup1\n      sload\n      dup3\n      dup3\n      sstore\n      swap1\n      0x00\n      mstore\n      keccak256(0x00, 0x20)\n      swap1\n      dup2\n      add\n      swap3\n      dup3\n      iszero\n      tag_62\n      jumpi\n      swap2\n      0x20\n      mul\n      dup3\n      add\n    tag_63:\n      dup3\n      dup2\n      gt\n      iszero\n      tag_64\n      jumpi\n      dup3\n      mload\n      dup3\n      exp(0x0100, 0x00)\n      dup2\n      sload\n      dup2\n      0xffffffffffffffffffffffffffffffffffffffff\n      mul\n      not\n      and\n      swap1\n      dup4\n      0xffffffffffffffffffffffffffffffffffffffff\n      and\n      mul\n      or\n      swap1\n      sstore\n      pop\n      swap2\n      0x20\n      add\n      swap2\n      swap1\n      0x01\n      add\n      swap1\n      jump(tag_63)\n    tag_64:\n    tag_62:\n      pop\n      swap1\n      pop\n      tag_65\n      swap2\n      swap1\n      tag_66\n      jump\t// in\n    tag_65:\n      pop\n      swap1\n      jump\t// out\n    tag_66:\n    tag_67:\n      dup1\n      dup3\n      gt\n      iszero\n      tag_68\n      jumpi\n      0x00\n      dup2\n      0x00\n      swap1\n      sstore\n      pop\n      0x01\n      add\n      jump(tag_67)\n    tag_68:\n      pop\n      swap1\n      jump\t// out\n        /* \"#utility.yul\":7:84   */\n    tag_69:\n        /* \"#utility.yul\":44:51   */\n      0x00\n        /* \"#utility.yul\":73:78   */\n      dup2\n        /* \"#utility.yul\":62:78   */\n      swap1\n      pop\n        /* \"#utility.yul\":7:84   */\n      swap2\n      swap1\n      pop\n      jump\t// out\n        /* \"#utility.yul\":90:208   */\n    tag_70:\n        /* \"#utility.yul\":177:201   */\n      tag_87\n        /* \"#utility.yul\":195:200   */\n      dup2\n        /* \"#utility.yul\":177:201   */\n      tag_69\n      jump\t// in\n    tag_87:\n        /* \"#utility.yul\":172:175   */\n      dup3\n        /* \"#utility.yul\":165:202   */\n      mstore\n        /* \"#utility.yul\":90:208   */\n      pop\n      pop\n      jump\t// out\n        /* \"#utility.yul\":214:436   */\n    tag_16:\n        /* \"#utility.yul\":307:311   */\n      0x00\n        /* \"#utility.yul\":345:347   */\n      0x20\n        /* \"#utility.yul\":334:343   */\n      dup3\n        /* \"#utility.yul\":330:348   */\n      add\n        /* \"#utility.yul\":322:348   */\n      swap1\n      pop\n        /* \"#utility.yul\":358:429   */\n      tag_89\n        /* \"#utility.yul\":426:427   */\n      0x00\n        /* \"#utility.yul\":415:424   */\n      dup4\n        /* \"#utility.yul\":411:428   */\n      add\n        /* \"#utility.yul\":402:408   */\n      dup5\n        /* \"#utility.yul\":358:429   */\n      tag_70\n      jump\t// in\n    tag_89:\n        /* \"#utility.yul\":214:436   */\n      swap3\n      swap2\n      pop\n      pop\n      jump\t// out\n        /* \"#utility.yul\":442:568   */\n    tag_71:\n        /* \"#utility.yul\":479:486   */\n      0x00\n        /* \"#utility.yul\":519:561   */\n      0xffffffffffffffffffffffffffffffffffffffff\n        /* \"#utility.yul\":512:517   */\n      dup3\n        /* \"#utility.yul\":508:562   */\n      and\n        /* \"#utility.yul\":497:562   */\n      swap1\n      pop\n        /* \"#utility.yul\":442:568   */\n      swap2\n      swap1\n      pop\n      jump\t// out\n        /* \"#utility.yul\":574:670   */\n    tag_72:\n        /* \"#utility.yul\":611:618   */\n      0x00\n        /* \"#utility.yul\":640:664   */\n      tag_92\n        /* \"#utility.yul\":658:663   */\n      dup3\n        /* \"#utility.yul\":640:664   */\n      tag_71\n      jump\t// in\n    tag_92:\n        /* \"#utility.yul\":629:664   */\n      swap1\n      pop\n        /* \"#utility.yul\":574:670   */\n      swap2\n      swap1\n      pop\n      jump\t// out\n        /* \"#utility.yul\":676:794   */\n    tag_73:\n        /* \"#utility.yul\":763:787   */\n      tag_94\n        /* \"#utility.yul\":781:786   */\n      dup2\n        /* \"#utility.yul\":763:787   */\n      tag_72\n      jump\t// in\n    tag_94:\n        /* \"#utility.yul\":758:761   */\n      dup3\n        /* \"#utility.yul\":751:788   */\n      mstore\n        /* \"#utility.yul\":676:794   */\n      pop\n      pop\n      jump\t// out\n        /* \"#utility.yul\":800:1022   */\n    tag_21:\n        /* \"#utility.yul\":893:897   */\n      0x00\n        /* \"#utility.yul\":931:933   */\n      0x20\n        /* \"#utility.yul\":920:929   */\n      dup3\n        /* \"#utility.yul\":916:934   */\n      add\n        /* \"#utility.yul\":908:934   */\n      swap1\n      pop\n        /* \"#utility.yul\":944:1015   */\n      tag_96\n        /* \"#utility.yul\":1012:1013   */\n      0x00\n        /* \"#utility.yul\":1001:1010   */\n      dup4\n        /* \"#utility.yul\":997:1014   */\n      add\n        /* \"#utility.yul\":988:994   */\n      dup5\n        /* \"#utility.yul\":944:1015   */\n      tag_73\n      jump\t// in\n    tag_96:\n        /* \"#utility.yul\":800:1022   */\n      swap3\n      swap2\n      pop\n      pop\n      jump\t// out\n        /* \"#utility.yul\":1109:1226   */\n    tag_75:\n        /* \"#utility.yul\":1218:1219   */\n      0x00\n        /* \"#utility.yul\":1215:1216   */\n      dup1\n        /* \"#utility.yul\":1208:1220   */\n      revert\n        /* \"#utility.yul\":1355:1477   */\n    tag_77:\n        /* \"#utility.yul\":1428:1452   */\n      tag_101\n        /* \"#utility.yul\":1446:1451   */\n      dup2\n        /* \"#utility.yul\":1428:1452   */\n      tag_69\n      jump\t// in\n    tag_101:\n        /* \"#utility.yul\":1421:1426   */\n      dup2\n        /* \"#utility.yul\":1418:1453   */\n      eq\n        /* \"#utility.yul\":1408:1471   */\n      tag_102\n      jumpi\n        /* \"#utility.yul\":1467:1468   */\n      0x00\n        /* \"#utility.yul\":1464:1465   */\n      dup1\n        /* \"#utility.yul\":1457:1469   */\n      revert\n        /* \"#utility.yul\":1408:1471   */\n    tag_102:\n        /* \"#utility.yul\":1355:1477   */\n      pop\n      jump\t// out\n        /* \"#utility.yul\":1483:1622   */\n    tag_78:\n        /* \"#utility.yul\":1529:1534   */\n      0x00\n        /* \"#utility.yul\":1567:1573   */\n      dup2\n        /* \"#utility.yul\":1554:1574   */\n      calldataload\n        /* \"#utility.yul\":1545:1574   */\n      swap1\n      pop\n        /* \"#utility.yul\":1583:1616   */\n      tag_104\n        /* \"#utility.yul\":1610:1615   */\n      dup2\n        /* \"#utility.yul\":1583:1616   */\n      tag_77\n      jump\t// in\n    tag_104:\n        /* \"#utility.yul\":1483:1622   */\n      swap3\n      swap2\n      pop\n      pop\n      jump\t// out\n        /* \"#utility.yul\":1628:1957   */\n    tag_32:\n        /* \"#utility.yul\":1687:1693   */\n      0x00\n        /* \"#utility.yul\":1736:1738   */\n      0x20\n        /* \"#utility.yul\":1724:1733   */\n      dup3\n        /* \"#utility.yul\":1715:1722   */\n      dup5\n        /* \"#utility.yul\":1711:1734   */\n      sub\n        /* \"#utility.yul\":1707:1739   */\n      slt\n        /* \"#utility.yul\":1704:1823   */\n      iszero\n      tag_106\n      jumpi\n        /* \"#utility.yul\":1742:1821   */\n      tag_107\n      tag_75\n      jump\t// in\n    tag_107:\n        /* \"#utility.yul\":1704:1823   */\n    tag_106:\n        /* \"#utility.yul\":1862:1863   */\n      0x00\n        /* \"#utility.yul\":1887:1940   */\n      tag_108\n        /* \"#utility.yul\":1932:1939   */\n      dup5\n        /* \"#utility.yul\":1923:1929   */\n      dup3\n        /* \"#utility.yul\":1912:1921   */\n      dup6\n        /* \"#utility.yul\":1908:1930   */\n      add\n        /* \"#utility.yul\":1887:1940   */\n      tag_78\n      jump\t// in\n    tag_108:\n        /* \"#utility.yul\":1877:1940   */\n      swap2\n      pop\n        /* \"#utility.yul\":1833:1950   */\n      pop\n        /* \"#utility.yul\":1628:1957   */\n      swap3\n      swap2\n      pop\n      pop\n      jump\t// out\n        /* \"#utility.yul\":1963:2067   */\n    tag_79:\n        /* \"#utility.yul\":2008:2015   */\n      0x00\n        /* \"#utility.yul\":2037:2061   */\n      tag_110\n        /* \"#utility.yul\":2055:2060   */\n      dup3\n        /* \"#utility.yul\":2037:2061   */\n      tag_71\n      jump\t// in\n    tag_110:\n        /* \"#utility.yul\":2026:2061   */\n      swap1\n      pop\n        /* \"#utility.yul\":1963:2067   */\n      swap2\n      swap1\n      pop\n      jump\t// out\n        /* \"#utility.yul\":2073:2215   */\n    tag_80:\n        /* \"#utility.yul\":2176:2208   */\n      tag_112\n        /* \"#utility.yul\":2202:2207   */\n      dup2\n        /* \"#utility.yul\":2176:2208   */\n      tag_79\n      jump\t// in\n    tag_112:\n        /* \"#utility.yul\":2171:2174   */\n      dup3\n        /* \"#utility.yul\":2164:2209   */\n      mstore\n        /* \"#utility.yul\":2073:2215   */\n      pop\n      pop\n      jump\t// out\n        /* \"#utility.yul\":2221:2475   */\n    tag_35:\n        /* \"#utility.yul\":2330:2334   */\n      0x00\n        /* \"#utility.yul\":2368:2370   */\n      0x20\n        /* \"#utility.yul\":2357:2366   */\n      dup3\n        /* \"#utility.yul\":2353:2371   */\n      add\n        /* \"#utility.yul\":2345:2371   */\n      swap1\n      pop\n        /* \"#utility.yul\":2381:2468   */\n      tag_114\n        /* \"#utility.yul\":2465:2466   */\n      0x00\n        /* \"#utility.yul\":2454:2463   */\n      dup4\n        /* \"#utility.yul\":2450:2467   */\n      add\n        /* \"#utility.yul\":2441:2447   */\n      dup5\n        /* \"#utility.yul\":2381:2468   */\n      tag_80\n      jump\t// in\n    tag_114:\n        /* \"#utility.yul\":2221:2475   */\n      swap3\n      swap2\n      pop\n      pop\n      jump\t// out\n        /* \"#utility.yul\":2481:2661   */\n    tag_81:\n        /* \"#utility.yul\":2529:2606   */\n      0x4e487b7100000000000000000000000000000000000000000000000000000000\n        /* \"#utility.yul\":2526:2527   */\n      0x00\n        /* \"#utility.yul\":2519:2607   */\n      mstore\n        /* \"#utility.yul\":2626:2630   */\n      0x12\n        /* \"#utility.yul\":2623:2624   */\n      0x04\n        /* \"#utility.yul\":2616:2631   */\n      mstore\n        /* \"#utility.yul\":2650:2654   */\n      0x24\n        /* \"#utility.yul\":2647:2648   */\n      0x00\n        /* \"#utility.yul\":2640:2655   */\n      revert\n        /* \"#utility.yul\":2667:2843   */\n    tag_43:\n        /* \"#utility.yul\":2699:2700   */\n      0x00\n        /* \"#utility.yul\":2716:2736   */\n      tag_117\n        /* \"#utility.yul\":2734:2735   */\n      dup3\n        /* \"#utility.yul\":2716:2736   */\n      tag_69\n      jump\t// in\n    tag_117:\n        /* \"#utility.yul\":2711:2736   */\n      swap2\n      pop\n        /* \"#utility.yul\":2750:2770   */\n      tag_118\n        /* \"#utility.yul\":2768:2769   */\n      dup4\n        /* \"#utility.yul\":2750:2770   */\n      tag_69\n      jump\t// in\n    tag_118:\n        /* \"#utility.yul\":2745:2770   */\n      swap3\n      pop\n        /* \"#utility.yul\":2789:2790   */\n      dup3\n        /* \"#utility.yul\":2779:2814   */\n      tag_119\n      jumpi\n        /* \"#utility.yul\":2794:2812   */\n      tag_120\n      tag_81\n      jump\t// in\n    tag_120:\n        /* \"#utility.yul\":2779:2814   */\n    tag_119:\n        /* \"#utility.yul\":2835:2836   */\n      dup3\n        /* \"#utility.yul\":2832:2833   */\n      dup3\n        /* \"#utility.yul\":2828:2837   */\n      mod\n        /* \"#utility.yul\":2823:2837   */\n      swap1\n      pop\n        /* \"#utility.yul\":2667:2843   */\n      swap3\n      swap2\n      pop\n      pop\n      jump\t// out\n        /* \"#utility.yul\":2849:3029   */\n    tag_46:\n        /* \"#utility.yul\":2897:2974   */\n      0x4e487b7100000000000000000000000000000000000000000000000000000000\n        /* \"#utility.yul\":2894:2895   */\n      0x00\n        /* \"#utility.yul\":2887:2975   */\n      mstore\n        /* \"#utility.yul\":2994:2998   */\n      0x32\n        /* \"#utility.yul\":2991:2992   */\n      0x04\n        /* \"#utility.yul\":2984:2999   */\n      mstore\n        /* \"#utility.yul\":3018:3022   */\n      0x24\n        /* \"#utility.yul\":3015:3016   */\n      0x00\n        /* \"#utility.yul\":3008:3023   */\n      revert\n        /* \"#utility.yul\":3035:3215   */\n    tag_53:\n        /* \"#utility.yul\":3083:3160   */\n      0x4e487b7100000000000000000000000000000000000000000000000000000000\n        /* \"#utility.yul\":3080:3081   */\n      0x00\n        /* \"#utility.yul\":3073:3161   */\n      mstore\n        /* \"#utility.yul\":3180:3184   */\n      0x41\n        /* \"#utility.yul\":3177:3178   */\n      0x04\n        /* \"#utility.yul\":3170:3185   */\n      mstore\n        /* \"#utility.yul\":3204:3208   */\n      0x24\n        /* \"#utility.yul\":3201:3202   */\n      0x00\n        /* \"#utility.yul\":3194:3209   */\n      revert\n        /* \"#utility.yul\":3221:3300   */\n    tag_82:\n        /* \"#utility.yul\":3260:3267   */\n      0x00\n        /* \"#utility.yul\":3289:3294   */\n      dup2\n        /* \"#utility.yul\":3278:3294   */\n      swap1\n      pop\n        /* \"#utility.yul\":3221:3300   */\n      swap2\n      swap1\n      pop\n      jump\t// out\n        /* \"#utility.yul\":3306:3463   */\n    tag_83:\n        /* \"#utility.yul\":3411:3456   */\n      tag_125\n        /* \"#utility.yul\":3431:3455   */\n      tag_126\n        /* \"#utility.yul\":3449:3454   */\n      dup3\n        /* \"#utility.yul\":3431:3455   */\n      tag_69\n      jump\t// in\n    tag_126:\n        /* \"#utility.yul\":3411:3456   */\n      tag_82\n      jump\t// in\n    tag_125:\n        /* \"#utility.yul\":3406:3409   */\n      dup3\n        /* \"#utility.yul\":3399:3457   */\n      mstore\n        /* \"#utility.yul\":3306:3463   */\n      pop\n      pop\n      jump\t// out\n        /* \"#utility.yul\":3469:4007   */\n    tag_59:\n        /* \"#utility.yul\":3637:3640   */\n      0x00\n        /* \"#utility.yul\":3652:3727   */\n      tag_128\n        /* \"#utility.yul\":3723:3726   */\n      dup3\n        /* \"#utility.yul\":3714:3720   */\n      dup7\n        /* \"#utility.yul\":3652:3727   */\n      tag_83\n      jump\t// in\n    tag_128:\n        /* \"#utility.yul\":3752:3754   */\n      0x20\n        /* \"#utility.yul\":3747:3750   */\n      dup3\n        /* \"#utility.yul\":3743:3755   */\n      add\n        /* \"#utility.yul\":3736:3755   */\n      swap2\n      pop\n        /* \"#utility.yul\":3765:3840   */\n      tag_129\n        /* \"#utility.yul\":3836:3839   */\n      dup3\n        /* \"#utility.yul\":3827:3833   */\n      dup6\n        /* \"#utility.yul\":3765:3840   */\n      tag_83\n      jump\t// in\n    tag_129:\n        /* \"#utility.yul\":3865:3867   */\n      0x20\n        /* \"#utility.yul\":3860:3863   */\n      dup3\n        /* \"#utility.yul\":3856:3868   */\n      add\n        /* \"#utility.yul\":3849:3868   */\n      swap2\n      pop\n        /* \"#utility.yul\":3878:3953   */\n      tag_130\n        /* \"#utility.yul\":3949:3952   */\n      dup3\n        /* \"#utility.yul\":3940:3946   */\n      dup5\n        /* \"#utility.yul\":3878:3953   */\n      tag_83\n      jump\t// in\n    tag_130:\n        /* \"#utility.yul\":3978:3980   */\n      0x20\n        /* \"#utility.yul\":3973:3976   */\n      dup3\n        /* \"#utility.yul\":3969:3981   */\n      add\n        /* \"#utility.yul\":3962:3981   */\n      swap2\n      pop\n        /* \"#utility.yul\":3998:4001   */\n      dup2\n        /* \"#utility.yul\":3991:4001   */\n      swap1\n      pop\n        /* \"#utility.yul\":3469:4007   */\n      swap5\n      swap4\n      pop\n      pop\n      pop\n      pop\n      jump\t// out\n\n    auxdata: 0xa2646970667358221220fe71dc81a09d61fa534db9a661f1d2a903c9cea9b4f023745b5823b65741ca8964736f6c634300081a0033\n}\n",
				"bytecode": {
					"linkReferences": {},
					"object": "6080604052348015600e575f80fd5b503360015f6101000a81548173ffffffffffffffffffffffffffffffffffffffff021916908373ffffffffffffffffffffffffffffffffffffffff1602179055506107078061005c5f395ff3fe60806040526004361061004d575f3560e01c806312065fe0146100c9578063481c6a75146100f35780635d495aea1461011d5780635ec01e4d14610133578063f71d96cb1461015d576100c5565b366100c55767016345785d8a00003414610065575f80fd5b5f33908060018154018082558091505060019003905f5260205f20015f9091909190916101000a81548173ffffffffffffffffffffffffffffffffffffffff021916908373ffffffffffffffffffffffffffffffffffffffff1602179055005b5f80fd5b3480156100d4575f80fd5b506100dd610199565b6040516100ea91906104bb565b60405180910390f35b3480156100fe575f80fd5b506101076101f8565b6040516101149190610513565b60405180910390f35b348015610128575f80fd5b5061013161021d565b005b34801561013e575f80fd5b50610147610390565b60405161015491906104bb565b60405180910390f35b348015610168575f80fd5b50610183600480360381019061017e919061055a565b6103c7565b60405161019091906105a5565b60405180910390f35b5f60015f9054906101000a900473ffffffffffffffffffffffffffffffffffffffff1673ffffffffffffffffffffffffffffffffffffffff163373ffffffffffffffffffffffffffffffffffffffff16146101f2575f80fd5b47905090565b60015f9054906101000a900473ffffffffffffffffffffffffffffffffffffffff1681565b60015f9054906101000a900473ffffffffffffffffffffffffffffffffffffffff1673ffffffffffffffffffffffffffffffffffffffff163373ffffffffffffffffffffffffffffffffffffffff1614610275575f80fd5b60035f805490501015610286575f80fd5b5f61028f610390565b90505f805f80549050836102a391906105eb565b90505f81815481106102b8576102b761061b565b5b905f5260205f20015f9054906101000a900473ffffffffffffffffffffffffffffffffffffffff1691508173ffffffffffffffffffffffffffffffffffffffff166108fc610304610199565b90811502906040515f60405180830381858888f1935050505015801561032c573d5f803e3d5ffd5b505f67ffffffffffffffff81111561034757610346610648565b5b6040519080825280602002602001820160405280156103755781602001602082028036833780820191505090505b505f908051906020019061038a929190610401565b50505050565b5f44425f805490506040516020016103aa93929190610695565b604051602081830303815290604052805190602001205f1c905090565b5f81815481106103d5575f80fd5b905f5260205f20015f915054906101000a900473ffffffffffffffffffffffffffffffffffffffff1681565b828054828255905f5260205f20908101928215610477579160200282015b82811115610476578251825f6101000a81548173ffffffffffffffffffffffffffffffffffffffff021916908373ffffffffffffffffffffffffffffffffffffffff1602179055509160200191906001019061041f565b5b5090506104849190610488565b5090565b5b8082111561049f575f815f905550600101610489565b5090565b5f819050919050565b6104b5816104a3565b82525050565b5f6020820190506104ce5f8301846104ac565b92915050565b5f73ffffffffffffffffffffffffffffffffffffffff82169050919050565b5f6104fd826104d4565b9050919050565b61050d816104f3565b82525050565b5f6020820190506105265f830184610504565b92915050565b5f80fd5b610539816104a3565b8114610543575f80fd5b50565b5f8135905061055481610530565b92915050565b5f6020828403121561056f5761056e61052c565b5b5f61057c84828501610546565b91505092915050565b5f61058f826104d4565b9050919050565b61059f81610585565b82525050565b5f6020820190506105b85f830184610596565b92915050565b7f4e487b71000000000000000000000000000000000000000000000000000000005f52601260045260245ffd5b5f6105f5826104a3565b9150610600836104a3565b9250826106105761060f6105be565b5b828206905092915050565b7f4e487b71000000000000000000000000000000000000000000000000000000005f52603260045260245ffd5b7f4e487b71000000000000000000000000000000000000000000000000000000005f52604160045260245ffd5b5f819050919050565b61068f61068a826104a3565b610675565b82525050565b5f6106a0828661067e565b6020820191506106b0828561067e565b6020820191506106c0828461067e565b60208201915081905094935050505056fea2646970667358221220fe71dc81a09d61fa534db9a661f1d2a903c9cea9b4f023745b5823b65741ca8964736f6c634300081a0033",
					"opcodes": "PUSH1 0x80 PUSH1 0x40 MSTORE CALLVALUE DUP1 ISZERO PUSH1 0xE JUMPI PUSH0 DUP1 REVERT JUMPDEST POP CALLER PUSH1 0x1 PUSH0 PUSH2 0x100 EXP DUP2 SLOAD DUP2 PUSH20 0xFFFFFFFFFFFFFFFFFFFFFFFFFFFFFFFFFFFFFFFF MUL NOT AND SWAP1 DUP4 PUSH20 0xFFFFFFFFFFFFFFFFFFFFFFFFFFFFFFFFFFFFFFFF AND MUL OR SWAP1 SSTORE POP PUSH2 0x707 DUP1 PUSH2 0x5C PUSH0 CODECOPY PUSH0 RETURN INVALID PUSH1 0x80 PUSH1 0x40 MSTORE PUSH1 0x4 CALLDATASIZE LT PUSH2 0x4D JUMPI PUSH0 CALLDATALOAD PUSH1 0xE0 SHR DUP1 PUSH4 0x12065FE0 EQ PUSH2 0xC9 JUMPI DUP1 PUSH4 0x481C6A75 EQ PUSH2 0xF3 JUMPI DUP1 PUSH4 0x5D495AEA EQ PUSH2 0x11D JUMPI DUP1 PUSH4 0x5EC01E4D EQ PUSH2 0x133 JUMPI DUP1 PUSH4 0xF71D96CB EQ PUSH2 0x15D JUMPI PUSH2 0xC5 JUMP JUMPDEST CALLDATASIZE PUSH2 0xC5 JUMPI PUSH8 0x16345785D8A0000 CALLVALUE EQ PUSH2 0x65 JUMPI PUSH0 DUP1 REVERT JUMPDEST PUSH0 CALLER SWAP1 DUP1 PUSH1 0x1 DUP2 SLOAD ADD DUP1 DUP3 SSTORE DUP1 SWAP2 POP POP PUSH1 0x1 SWAP1 SUB SWAP1 PUSH0 MSTORE PUSH1 0x20 PUSH0 KECCAK256 ADD PUSH0 SWAP1 SWAP2 SWAP1 SWAP2 SWAP1 SWAP2 PUSH2 0x100 EXP DUP2 SLOAD DUP2 PUSH20 0xFFFFFFFFFFFFFFFFFFFFFFFFFFFFFFFFFFFFFFFF MUL NOT AND SWAP1 DUP4 PUSH20 0xFFFFFFFFFFFFFFFFFFFFFFFFFFFFFFFFFFFFFFFF AND MUL OR SWAP1 SSTORE STOP JUMPDEST PUSH0 DUP1 REVERT JUMPDEST CALLVALUE DUP1 ISZERO PUSH2 0xD4 JUMPI PUSH0 DUP1 REVERT JUMPDEST POP PUSH2 0xDD PUSH2 0x199 JUMP JUMPDEST PUSH1 0x40 MLOAD PUSH2 0xEA SWAP2 SWAP1 PUSH2 0x4BB JUMP JUMPDEST PUSH1 0x40 MLOAD DUP1 SWAP2 SUB SWAP1 RETURN JUMPDEST CALLVALUE DUP1 ISZERO PUSH2 0xFE JUMPI PUSH0 DUP1 REVERT JUMPDEST POP PUSH2 0x107 PUSH2 0x1F8 JUMP JUMPDEST PUSH1 0x40 MLOAD PUSH2 0x114 SWAP2 SWAP1 PUSH2 0x513 JUMP JUMPDEST PUSH1 0x40 MLOAD DUP1 SWAP2 SUB SWAP1 RETURN JUMPDEST CALLVALUE DUP1 ISZERO PUSH2 0x128 JUMPI PUSH0 DUP1 REVERT JUMPDEST POP PUSH2 0x131 PUSH2 0x21D JUMP JUMPDEST STOP JUMPDEST CALLVALUE DUP1 ISZERO PUSH2 0x13E JUMPI PUSH0 DUP1 REVERT JUMPDEST POP PUSH2 0x147 PUSH2 0x390 JUMP JUMPDEST PUSH1 0x40 MLOAD PUSH2 0x154 SWAP2 SWAP1 PUSH2 0x4BB JUMP JUMPDEST PUSH1 0x40 MLOAD DUP1 SWAP2 SUB SWAP1 RETURN JUMPDEST CALLVALUE DUP1 ISZERO PUSH2 0x168 JUMPI PUSH0 DUP1 REVERT JUMPDEST POP PUSH2 0x183 PUSH1 0x4 DUP1 CALLDATASIZE SUB DUP2 ADD SWAP1 PUSH2 0x17E SWAP2 SWAP1 PUSH2 0x55A JUMP JUMPDEST PUSH2 0x3C7 JUMP JUMPDEST PUSH1 0x40 MLOAD PUSH2 0x190 SWAP2 SWAP1 PUSH2 0x5A5 JUMP JUMPDEST PUSH1 0x40 MLOAD DUP1 SWAP2 SUB SWAP1 RETURN JUMPDEST PUSH0 PUSH1 0x1 PUSH0 SWAP1 SLOAD SWAP1 PUSH2 0x100 EXP SWAP1 DIV PUSH20 0xFFFFFFFFFFFFFFFFFFFFFFFFFFFFFFFFFFFFFFFF AND PUSH20 0xFFFFFFFFFFFFFFFFFFFFFFFFFFFFFFFFFFFFFFFF AND CALLER PUSH20 0xFFFFFFFFFFFFFFFFFFFFFFFFFFFFFFFFFFFFFFFF AND EQ PUSH2 0x1F2 JUMPI PUSH0 DUP1 REVERT JUMPDEST SELFBALANCE SWAP1 POP SWAP1 JUMP JUMPDEST PUSH1 0x1 PUSH0 SWAP1 SLOAD SWAP1 PUSH2 0x100 EXP SWAP1 DIV PUSH20 0xFFFFFFFFFFFFFFFFFFFFFFFFFFFFFFFFFFFFFFFF AND DUP2 JUMP JUMPDEST PUSH1 0x1 PUSH0 SWAP1 SLOAD SWAP1 PUSH2 0x100 EXP SWAP1 DIV PUSH20 0xFFFFFFFFFFFFFFFFFFFFFFFFFFFFFFFFFFFFFFFF AND PUSH20 0xFFFFFFFFFFFFFFFFFFFFFFFFFFFFFFFFFFFFFFFF AND CALLER PUSH20 0xFFFFFFFFFFFFFFFFFFFFFFFFFFFFFFFFFFFFFFFF AND EQ PUSH2 0x275 JUMPI PUSH0 DUP1 REVERT JUMPDEST PUSH1 0x3 PUSH0 DUP1 SLOAD SWAP1 POP LT ISZERO PUSH2 0x286 JUMPI PUSH0 DUP1 REVERT JUMPDEST PUSH0 PUSH2 0x28F PUSH2 0x390 JUMP JUMPDEST SWAP1 POP PUSH0 DUP1 PUSH0 DUP1 SLOAD SWAP1 POP DUP4 PUSH2 0x2A3 SWAP2 SWAP1 PUSH2 0x5EB JUMP JUMPDEST SWAP1 POP PUSH0 DUP2 DUP2 SLOAD DUP2 LT PUSH2 0x2B8 JUMPI PUSH2 0x2B7 PUSH2 0x61B JUMP JUMPDEST JUMPDEST SWAP1 PUSH0 MSTORE PUSH1 0x20 PUSH0 KECCAK256 ADD PUSH0 SWAP1 SLOAD SWAP1 PUSH2 0x100 EXP SWAP1 DIV PUSH20 0xFFFFFFFFFFFFFFFFFFFFFFFFFFFFFFFFFFFFFFFF AND SWAP2 POP DUP2 PUSH20 0xFFFFFFFFFFFFFFFFFFFFFFFFFFFFFFFFFFFFFFFF AND PUSH2 0x8FC PUSH2 0x304 PUSH2 0x199 JUMP JUMPDEST SWAP1 DUP2 ISZERO MUL SWAP1 PUSH1 0x40 MLOAD PUSH0 PUSH1 0x40 MLOAD DUP1 DUP4 SUB DUP2 DUP6 DUP9 DUP9 CALL SWAP4 POP POP POP POP ISZERO DUP1 ISZERO PUSH2 0x32C JUMPI RETURNDATASIZE PUSH0 DUP1 RETURNDATACOPY RETURNDATASIZE PUSH0 REVERT JUMPDEST POP PUSH0 PUSH8 0xFFFFFFFFFFFFFFFF DUP2 GT ISZERO PUSH2 0x347 JUMPI PUSH2 0x346 PUSH2 0x648 JUMP JUMPDEST JUMPDEST PUSH1 0x40 MLOAD SWAP1 DUP1 DUP3 MSTORE DUP1 PUSH1 0x20 MUL PUSH1 0x20 ADD DUP3 ADD PUSH1 0x40 MSTORE DUP1 ISZERO PUSH2 0x375 JUMPI DUP2 PUSH1 0x20 ADD PUSH1 0x20 DUP3 MUL DUP1 CALLDATASIZE DUP4 CALLDATACOPY DUP1 DUP3 ADD SWAP2 POP POP SWAP1 POP JUMPDEST POP PUSH0 SWAP1 DUP1 MLOAD SWAP1 PUSH1 0x20 ADD SWAP1 PUSH2 0x38A SWAP3 SWAP2 SWAP1 PUSH2 0x401 JUMP JUMPDEST POP POP POP POP JUMP JUMPDEST PUSH0 PREVRANDAO TIMESTAMP PUSH0 DUP1 SLOAD SWAP1 POP PUSH1 0x40 MLOAD PUSH1 0x20 ADD PUSH2 0x3AA SWAP4 SWAP3 SWAP2 SWAP1 PUSH2 0x695 JUMP JUMPDEST PUSH1 0x40 MLOAD PUSH1 0x20 DUP2 DUP4 SUB SUB DUP2 MSTORE SWAP1 PUSH1 0x40 MSTORE DUP1 MLOAD SWAP1 PUSH1 0x20 ADD KECCAK256 PUSH0 SHR SWAP1 POP SWAP1 JUMP JUMPDEST PUSH0 DUP2 DUP2 SLOAD DUP2 LT PUSH2 0x3D5 JUMPI PUSH0 DUP1 REVERT JUMPDEST SWAP1 PUSH0 MSTORE PUSH1 0x20 PUSH0 KECCAK256 ADD PUSH0 SWAP2 POP SLOAD SWAP1 PUSH2 0x100 EXP SWAP1 DIV PUSH20 0xFFFFFFFFFFFFFFFFFFFFFFFFFFFFFFFFFFFFFFFF AND DUP2 JUMP JUMPDEST DUP3 DUP1 SLOAD DUP3 DUP3 SSTORE SWAP1 PUSH0 MSTORE PUSH1 0x20 PUSH0 KECCAK256 SWAP1 DUP2 ADD SWAP3 DUP3 ISZERO PUSH2 0x477 JUMPI SWAP2 PUSH1 0x20 MUL DUP3 ADD JUMPDEST DUP3 DUP2 GT ISZERO PUSH2 0x476 JUMPI DUP3 MLOAD DUP3 PUSH0 PUSH2 0x100 EXP DUP2 SLOAD DUP2 PUSH20 0xFFFFFFFFFFFFFFFFFFFFFFFFFFFFFFFFFFFFFFFF MUL NOT AND SWAP1 DUP4 PUSH20 0xFFFFFFFFFFFFFFFFFFFFFFFFFFFFFFFFFFFFFFFF AND MUL OR SWAP1 SSTORE POP SWAP2 PUSH1 0x20 ADD SWAP2 SWAP1 PUSH1 0x1 ADD SWAP1 PUSH2 0x41F JUMP JUMPDEST JUMPDEST POP SWAP1 POP PUSH2 0x484 SWAP2 SWAP1 PUSH2 0x488 JUMP JUMPDEST POP SWAP1 JUMP JUMPDEST JUMPDEST DUP1 DUP3 GT ISZERO PUSH2 0x49F JUMPI PUSH0 DUP2 PUSH0 SWAP1 SSTORE POP PUSH1 0x1 ADD PUSH2 0x489 JUMP JUMPDEST POP SWAP1 JUMP JUMPDEST PUSH0 DUP2 SWAP1 POP SWAP2 SWAP1 POP JUMP JUMPDEST PUSH2 0x4B5 DUP2 PUSH2 0x4A3 JUMP JUMPDEST DUP3 MSTORE POP POP JUMP JUMPDEST PUSH0 PUSH1 0x20 DUP3 ADD SWAP1 POP PUSH2 0x4CE PUSH0 DUP4 ADD DUP5 PUSH2 0x4AC JUMP JUMPDEST SWAP3 SWAP2 POP POP JUMP JUMPDEST PUSH0 PUSH20 0xFFFFFFFFFFFFFFFFFFFFFFFFFFFFFFFFFFFFFFFF DUP3 AND SWAP1 POP SWAP2 SWAP1 POP JUMP JUMPDEST PUSH0 PUSH2 0x4FD DUP3 PUSH2 0x4D4 JUMP JUMPDEST SWAP1 POP SWAP2 SWAP1 POP JUMP JUMPDEST PUSH2 0x50D DUP2 PUSH2 0x4F3 JUMP JUMPDEST DUP3 MSTORE POP POP JUMP JUMPDEST PUSH0 PUSH1 0x20 DUP3 ADD SWAP1 POP PUSH2 0x526 PUSH0 DUP4 ADD DUP5 PUSH2 0x504 JUMP JUMPDEST SWAP3 SWAP2 POP POP JUMP JUMPDEST PUSH0 DUP1 REVERT JUMPDEST PUSH2 0x539 DUP2 PUSH2 0x4A3 JUMP JUMPDEST DUP2 EQ PUSH2 0x543 JUMPI PUSH0 DUP1 REVERT JUMPDEST POP JUMP JUMPDEST PUSH0 DUP2 CALLDATALOAD SWAP1 POP PUSH2 0x554 DUP2 PUSH2 0x530 JUMP JUMPDEST SWAP3 SWAP2 POP POP JUMP JUMPDEST PUSH0 PUSH1 0x20 DUP3 DUP5 SUB SLT ISZERO PUSH2 0x56F JUMPI PUSH2 0x56E PUSH2 0x52C JUMP JUMPDEST JUMPDEST PUSH0 PUSH2 0x57C DUP5 DUP3 DUP6 ADD PUSH2 0x546 JUMP JUMPDEST SWAP2 POP POP SWAP3 SWAP2 POP POP JUMP JUMPDEST PUSH0 PUSH2 0x58F DUP3 PUSH2 0x4D4 JUMP JUMPDEST SWAP1 POP SWAP2 SWAP1 POP JUMP JUMPDEST PUSH2 0x59F DUP2 PUSH2 0x585 JUMP JUMPDEST DUP3 MSTORE POP POP JUMP JUMPDEST PUSH0 PUSH1 0x20 DUP3 ADD SWAP1 POP PUSH2 0x5B8 PUSH0 DUP4 ADD DUP5 PUSH2 0x596 JUMP JUMPDEST SWAP3 SWAP2 POP POP JUMP JUMPDEST PUSH32 0x4E487B7100000000000000000000000000000000000000000000000000000000 PUSH0 MSTORE PUSH1 0x12 PUSH1 0x4 MSTORE PUSH1 0x24 PUSH0 REVERT JUMPDEST PUSH0 PUSH2 0x5F5 DUP3 PUSH2 0x4A3 JUMP JUMPDEST SWAP2 POP PUSH2 0x600 DUP4 PUSH2 0x4A3 JUMP JUMPDEST SWAP3 POP DUP3 PUSH2 0x610 JUMPI PUSH2 0x60F PUSH2 0x5BE JUMP JUMPDEST JUMPDEST DUP3 DUP3 MOD SWAP1 POP SWAP3 SWAP2 POP POP JUMP JUMPDEST PUSH32 0x4E487B7100000000000000000000000000000000000000000000000000000000 PUSH0 MSTORE PUSH1 0x32 PUSH1 0x4 MSTORE PUSH1 0x24 PUSH0 REVERT JUMPDEST PUSH32 0x4E487B7100000000000000000000000000000000000000000000000000000000 PUSH0 MSTORE PUSH1 0x41 PUSH1 0x4 MSTORE PUSH1 0x24 PUSH0 REVERT JUMPDEST PUSH0 DUP2 SWAP1 POP SWAP2 SWAP1 POP JUMP JUMPDEST PUSH2 0x68F PUSH2 0x68A DUP3 PUSH2 0x4A3 JUMP JUMPDEST PUSH2 0x675 JUMP JUMPDEST DUP3 MSTORE POP POP JUMP JUMPDEST PUSH0 PUSH2 0x6A0 DUP3 DUP7 PUSH2 0x67E JUMP JUMPDEST PUSH1 0x20 DUP3 ADD SWAP2 POP PUSH2 0x6B0 DUP3 DUP6 PUSH2 0x67E JUMP JUMPDEST PUSH1 0x20 DUP3 ADD SWAP2 POP PUSH2 0x6C0 DUP3 DUP5 PUSH2 0x67E JUMP JUMPDEST PUSH1 0x20 DUP3 ADD SWAP2 POP DUP2 SWAP1 POP SWAP5 SWAP4 POP POP POP POP JUMP INVALID LOG2 PUSH5 0x6970667358 0x22 SLT KECCAK256 INVALID PUSH18 0xDC81A09D61FA534DB9A661F1D2A903C9CEA9 0xB4 CREATE 0x23 PUSH21 0x5B5823B65741CA8964736F6C634300081A00330000 "
				},
				"gasEstimates": {
					"creation": {
						"codeDepositCost": "359800",
						"executionCost": "24662",
						"totalCost": "384462"
					},
					"external": {
						"getBalance()": "2481",
						"manager()": "2508",
						"pickWinner()": "infinite",
						"players(uint256)": "5009",
						"random()": "infinite"
					}
				},
				"methodIdentifiers": {
					"getBalance()": "12065fe0",
					"manager()": "481c6a75",
					"pickWinner()": "5d495aea",
					"players(uint256)": "f71d96cb",
					"random()": "5ec01e4d"
				}
			},
			"storageLayout": {
				"storage": [
					{
						"astId": 4,
						"contract": "contracts/Lottery.sol:Lottery",
						"label": "players",
						"offset": 0,
						"slot": "0",
						"type": "t_array(t_address_payable)dyn_storage"
					},
					{
						"astId": 6,
						"contract": "contracts/Lottery.sol:Lottery",
						"label": "manager",
						"offset": 0,
						"slot": "1",
						"type": "t_address"
					}
				],
				"types": {
					"t_address": {
						"encoding": "inplace",
						"label": "address",
						"numberOfBytes": "20"
					},
					"t_address_payable": {
						"encoding": "inplace",
						"label": "address payable",
						"numberOfBytes": "20"
					},
					"t_array(t_address_payable)dyn_storage": {
						"base": "t_address_payable",
						"encoding": "dynamic_array",
						"label": "address payable[]",
						"numberOfBytes": "32"
					}
				}
			},
			"userdoc": {
				"kind": "user",
				"methods": {},
				"version": 1
			}
		}
	}
}